:020000040800F2
:1000000000400220A9500008754E00087D4E0008EF
:1000100000000000000000000000000000000000E0
:100020000000000000000000000000005D960108D4
:100030000000000000000000819701082569010808
:10004000F9500008F9500008F9500008F95000086C
:10005000F9500008F9500008854E0008954E000838
:10006000F9500008A94E0008C14E0008F9500008D8
:10007000F9500008D94E0008F9500008F95000085E
:10008000F9500008F9500008F9500008F95000082C
:10009000F9500008F9500008F9500008F95000081C
:1000A000F9500008F14E0008F9500008F950000816
:0C00B000094F0008F9500008F950000842
:1000C00010B5064C2378002B07D1054B002B02D02E
:1000D000044800E000BF0123237010BD000300208E
:1000E00000000000F8D10108044B10B5002B03D02C
:1000F0000349044800E000BF10BDC04600000000F6
:1001000004030020F8D1010802780B78002A03D0FC
:10011000013001319A42F7D0D01A70470023C25CF7
:100120000133002AFBD1581E7047000002B471460B
:1001300049084900095C49008E4402BC7047C0462A
:1001400003B47146490840004900095E49008E44E5
:1001500003BC7047002243088B4274D303098B42CF
:100160005FD3030A8B4244D3030B8B4228D3030C87
:100170008B420DD3FF22090212BA030C8B4202D329
:100180001212090265D0030B8B4219D300E0090A51
:10019000C30B8B4201D3CB03C01A5241830B8B425A
:1001A00001D38B03C01A5241430B8B4201D34B0343
:1001B000C01A5241030B8B4201D30B03C01A5241A8
:1001C000C30A8B4201D3CB02C01A5241830A8B422D
:1001D00001D38B02C01A5241430A8B4201D34B0216
:1001E000C01A5241030A8B4201D30B02C01A52417A
:1001F000CDD2C3098B4201D3CB01C01A524183092E
:100200008B4201D38B01C01A524143098B4201D367
:100210004B01C01A524103098B4201D30B01C01A92
:100220005241C3088B4201D3CB00C01A524183080C
:100230008B4201D38B00C01A524143088B4201D339
:100240004B00C01A5241411A00D201465241104699
:100250007047FFE701B5002000F0F0F802BDC0468E
:100260000029F7D076E7704703460B437FD400227E
:1002700043088B4274D303098B425FD3030A8B423A
:1002800044D3030B8B4228D3030C8B420DD3FF22A4
:10029000090212BA030C8B4202D31212090265D072
:1002A000030B8B4219D300E0090AC30B8B4201D325
:1002B000CB03C01A5241830B8B4201D38B03C01A6C
:1002C0005241430B8B4201D34B03C01A5241030BE3
:1002D0008B4201D30B03C01A5241C30A8B4201D394
:1002E000CB02C01A5241830A8B4201D38B02C01A3F
:1002F0005241430A8B4201D34B02C01A5241030AB6
:100300008B4201D30B02C01A5241CDD2C3098B429A
:1003100001D3CB01C01A524183098B4201D38B0117
:10032000C01A524143098B4201D34B01C01A5241BA
:1003300003098B4201D30B01C01A5241C3088B42FF
:1003400001D3CB00C01A524183088B4201D38B00EA
:10035000C01A524143088B4201D34B00C01A52418C
:10036000411A00D201465241104670475DE0CA0F63
:1003700000D04942031000D34042534000229C4623
:1003800003098B422DD3030A8B4212D3FC2289012D
:1003900012BA030A8B420CD3890192118B4208D303
:1003A000890192118B4204D389013AD0921100E065
:1003B0008909C3098B4201D3CB01C01A5241830979
:1003C0008B4201D38B01C01A524143098B4201D3A6
:1003D0004B01C01A524103098B4201D30B01C01AD1
:1003E0005241C3088B4201D3CB00C01A524183084B
:1003F0008B4201D38B00C01A5241D9D243088B42A1
:1004000001D34B00C01A5241411A00D20146634643
:1004100052415B10104601D34042002B00D54942A7
:10042000704763465B1000D3404201B5002000F0E6
:1004300005F802BD0029F8D016E770477047C0469E
:100440008446100062468C461900634600E0C046B0
:100450001FB501F0CFF8002801D40021C8421FBD0C
:1004600010B501F013F84042013010BD10B501F095
:10047000C1F8002801DB002010BD012010BDC046DE
:1004800010B501F0B7F8002801DD002010BD0120F3
:1004900010BDC04610B501F03DF8002801DC002079
:1004A00010BD012010BDC04610B501F033F8002882
:1004B00001DA002010BD012010BDC0461C2101231F
:1004C0001B04984201D3000C10391B0A984201D337
:1004D000000A08391B09984201D30009043902A215
:1004E000105C40187047C04604030202010101017C
:1004F0000000000000000000002B11D1002A0FD1E5
:10050000002900D1002802D00021C943080007B407
:10051000024802A14018029003BDC04621FFFFFF20
:1005200003B4684601B5029800F006F8019B9E46A8
:1005300002B00CBC7047C046F0B557464E46454623
:10054000DE46E0B504000D009246994683B08B422A
:1005500030D82DD04946504602F05AF829000600FE
:10056000200002F055F8331A9846203B34D49B46BD
:1005700053465A46934042461F00534693401E003E
:10058000AF423BD8AF4200D179E05B46A41BBD41EE
:10059000002B00DA76E00022002300920193012371
:1005A0005A4693400193012342469340009329E029
:1005B0008242CFD900220023009201930C9B002B92
:1005C00001D01C605D600098019903B0F0BCBB468F
:1005D000B246A946A046F0BD42469B4620239B1A40
:1005E0005246DA40414613004A468A4017004246C6
:1005F0001F43534693401E00AF42C3D9002200233D
:10060000009201934346002BD8D0FB0772081A438F
:1006100046467B080EE0AB4201D1A2420CD8A41A98
:100620009D41012024196D410021013E24184D41B6
:10063000002E06D0AB42EED9013E24196D41002EAA
:10064000F8D1009801995B4600196941002B24DB21
:100650002B005A464446D3402A00E2401C005B4629
:100660001500002B2ADB26009E403300260047465B
:10067000BE403200801A9941009001919EE7A3424A
:10068000BCD882E74246202300219B1A0022009119
:1006900001920122DA40019285E7424620239B1A0B
:1006A0002A0046469A402300F340444613432A005A
:1006B000E2401C005B461500002BD4DA42462F00B6
:1006C0002023260097409B1ADE403B003343CDE7B2
:1006D000F0B54F464646D646C0B582B0009001916F
:1006E0000E034C00CD0F710A009E5F00760F0E4383
:1006F000009900920193C900894619037B0D984621
:10070000019B490ADB0F9C46009B009A5B0F0B4341
:100710004146640DD200611A654500D1A6E000296A
:1007200072DD4746002F00D1DDE0CC4FBC4200D146
:100730009AE10127382917DC80273F043B431F2912
:1007400000DDDDE12027781A1F008740BA46170038
:10075000CF40844638005746074360468240CB402E
:10076000501E8241F61A17434B46DF1BB9458041A4
:100770004042361A330200D4FFE07602760A002E99
:1007800000D13CE13000FFF799FE0300083B202137
:100790003800CA1AD0409E4002009F4032439C421B
:1007A00000DDA6E1181B0130091A3E008F40C6404B
:1007B0007B1E9F4113008B4037431F43C2403B00C9
:1007C00016000024134300D1DFE17B0700D132E3A0
:1007D0000F233A003B40042B04D03A1DBA42BF41DC
:1007E0007F42F619330200D423E39C4B01349C4230
:1007F00000D1B4E09A4B64051E40640D7707D2081F
:1008000076021743360BACE0002900D17EE041466A
:10081000091B002C00D060E134004846044300D19D
:10082000C9E14C1E012900D12EE28C4DA94200D114
:1008300024E20127382C11DC21001F2900DD0BE206
:10084000202437004846641AA740C840074348465A
:10085000A040CE40441EA0419B1B0743D71BBA4279
:1008600092415242654644469E1A83E7002900DCC5
:100870009CE04746002F67D11F00174300D1E4E0FA
:10088000481E012900D19BE1744FB94200D1EBE031
:1008900001270100382811DC1F2900DDC7E12027CE
:1008A000781A1F00844687401000C84007436046FE
:1008B0008240CB40501E8241F61817434F444F45AB
:1008C000804140423618330257D5644B01349C4274
:1008D00045D00121624B7A081E4039400A43F70790
:1008E0001743760871E71F00174300D1ADE04F1E94
:1008F000BC46012900D182E1584FB94200D190E1B4
:1009000061460127382900DD2EE718E7554F611CA5
:10091000394200D0D0E0310048461F000143174360
:10092000002C00D03DE1002900D1BCE1002F00D017
:10093000BFE14B460021D80877070743F0080603BC
:100940004C05360B640D0CE0444FBC4200D18BE0EB
:1009500001273829B2DC80273F043B439CE700266F
:10096000002724053443ED072C433800210002B052
:10097000E0BCBA46B146A846F0BD7B0704D00F23C1
:100980003B40042B00D028E7F808344B7707074397
:10099000F0089C4200D04AE23B00034359D0802635
:1009A0003603064336032D4C360BDAE7002961D0B7
:1009B0004146091B002C00D1B9E0284CA04500D1CC
:1009C000A5E10127382913DC8024240426431F29AC
:1009D00000DDC8E1202437004846641AA740C8401B
:1009E00007434846A040CE40441EA0419B19074300
:1009F000BF189742924152424446D61863E73800E6
:100A0000FFF75CFD030018331F2B00DCBFE63A0044
:100A1000083882409C4200DD83E01B1B581C1F28C5
:100A200000DCB4E117001F3BDF40202805D0402345
:100A30001B1A9A40531E9A4117430024002F0AD0D4
:100A40007B0700D0C4E626009EE74B460C00D80882
:100A50009BE70027014C002683E7C046FF07000004
:100A6000FFFF7FFFFE0700004B467707D8080743CC
:100A7000F00891E7CD4F611C39426BD131004846F7
:100A80000143002C00D04BE11F001743002900D187
:100A900081E1002F00D14CE74A444A458041F618D5
:100AA00040423618330200D5B0E117009146374373
:100AB00000D03EE7002654E74946891A8846C145DA
:100AC000BF41F11A7F42C91B0F0261D447460F4351
:100AD00000D1BDE00E00474651E6B54CA04500D11F
:100AE00000E10127382900DDB8E6802424042643EC
:100AF000A3E6B04EE41A16407B0700D03FE743E779
:100B00000F001800203FF8408446202903D04027DA
:100B1000791A8B401A43531E9A41634617001F43AC
:100B200022E6A448E11A10404707C00807E734004E
:100B30004846044300D1FAE04C1E012900D1D7E019
:100B40009B4FB94200D1E2E00127382C00DD4FE78E
:100B500021003CE7964CA14200D1DDE04A444A45E1
:100B60008041F31840421818C70752081743460837
:100B7000520705D00F220C003A40042A00D02CE680
:100B80007607FF0837430009D9E600270026E8E684
:100B90004946571ABA4292419E1B52426546B61ABE
:100BA000EDE5002900D0C6E0002F67D180260025A2
:100BB0007F4C3603D5E665460C001E00D008E4E6FF
:100BC0004A444A458041F318404218181100030274
:100BD00000D496E0774B49081840C3070B434408FC
:100BE000490700D129E10F221A40042A00D1EAE086
:100BF0001F1D9F42B641764236190224C4E649467B
:100C00008F1AB9458041F61A4042361A330206D48B
:100C10007307FF0801211F43F00890E66546012491
:100C2000ABE54B467707D8080743F008B4E60F005A
:100C30001800203FF8408446202903D04027791A25
:100C40008B401A43531E9A41634617001F4335E6F3
:100C500000250024002684E60C003500203CE540F9
:100C6000202905D04024611A8E40494631438946E7
:100C70004846411E884107002F43EFE5D2085F0731
:100C800065461743D80887E6171ABA4292419E1B59
:100C90005242B61A3302C1D47307FF0865460121D8
:100CA0001F43F0084BE6002F7BD065461E0091469F
:100CB0003FE6811A8846C145A441F11A6442091BE6
:100CC00080242404214277D0101A824292410700E6
:100CD0009E1B5242B61A374300D0A0E0654600245E
:100CE00000263EE65F07D20865461743D80853E65C
:100CF000811891429241F01852428018030200D5A7
:100D000068E74707C9080F43C008012117E6D20862
:100D10005F071743D8083FE60C000026002720E6AF
:100D2000002956D15F07D2081743D80834E60C00D3
:100D30001E00D00829E6C10870070143F008002F03
:100D400062D080242403204207D0DE08264204D14A
:100D500065463000D1085B0719434F0FC900C90829
:100D60007F070F4318E60C003000203CE04084462B
:100D7000202905D04024611A8E40494631438946D6
:100D80004846411E8841614607000F4330E6202156
:100D90000027091A0EE51E00002F00D022E50024CE
:100DA00058E7002500240026DBE5C046FE070000CA
:100DB000FF070000FFFF7FFF47460F4300D147E7D3
:100DC0000E00C146B5E5DF0864070221274300098C
:100DD000B5E51900C008770707431143F00800295B
:100DE00000D1D9E580210903084207D0DC080C4274
:100DF00004D1D2085B071A43170020007B0FFF00C5
:100E0000FF085B071F43C7E50F00C5E5124BD2087B
:100E100033405F075B02012417431E0BA1E5264206
:100E200012D00D4B6546020001241E40E6E421006D
:100E300085E51700A8E53A00D4E4DB0864071C4305
:100E40002700022100097AE5C008770707436546B5
:100E50000021F00873E5C046FFFF7FFFF0B5DE46D6
:100E6000454657464E46E0B587B0009201930B03C6
:100E70001B0B9B46CA0F4B00040080465B0D029281
:100E800000D198E07C4A934237D05946420FC900BE
:100E90000A43802109041143C2009046774A8946DB
:100EA00092469A44002300240393009E019F3B0333
:100EB0001B0B9B467B0030005B0DFD0F002B59D0B8
:100EC0006D4A934248D05946720FC9000A438021A7
:100ED000090411438B466949F2008C46514663442C
:100EE000CB1A9A460021029E6E40F6B20F2C00D912
:100EF000CEE0634BA4001B599F465A4602439146DD
:100F000000D090E09A460223904608240393CCE751
:100F1000CB464246029D0399022900D1DEE1032916
:100F200000D18DE0012900D079E12E0000220023BC
:100F3000002490461B052343F6073343404619001F
:100F400007B0F0BCBB46B246A946A046F0BD0022A1
:100F500000249046484BEDE75A46009B1A43494B04
:100F60009C46E244002A59D102231C43002302215B
:100F70009B46B8E75A46009B1A4349D05B46002B74
:100F800000D19CE15846FFF799FA020003000B3AA2
:100F90001D27009EBA1A19005846D64008398840C5
:100FA000320002439346009A8A40374953448A46A6
:100FB00000219A4497E75B460343994621D05B465C
:100FC000002B00D169E15846FFF778FA0B235B420A
:100FD0009C460200844466461D239B1B260011008C
:100FE0005846DE40083988403300034399462300C1
:100FF0008B409846254B00249B1A9A460023039366
:1010000053E7002398469A460133042403934CE7A0
:1010100001231C43002301219B4664E70323320084
:1010200003211C435FE79A460323D9460C2403930C
:101030003BE700238024984600260F4B240379E7E2
:1010400080245B4624031C4324032E0090460A4B55
:10105000240B6FE780244B462403234202D05B46D7
:101060002342F0D080244B4624031C432403029ED9
:10107000014B240B5EE7C046FF07000001FCFFFFA9
:101080000C2A020801F8FFFFF30300000DFCFFFF2C
:10109000CB4500D2F8E000D1F3E001235B429C464F
:1010A000444648460025E2445B46170E1B021F4398
:1010B000190C3B04120200971F0C914602910397F2
:1010C000FFF7CEF802007A430B04210C8046194347
:1010D0008A4209D9009F0123BC465B4261449C4679
:1010E000E0448F4200D85CE1881A0299FFF7B8F813
:1010F000039A240442430904240C03000C43A24233
:1011000006D90099013B8C466444A14200D842E1D3
:10111000A01A424612041A4393464B4659461B0CEA
:101120001F0004930B0449460904090C0C001B0C16
:101130005C43120C7B43884651437A43270CBC46E0
:101140005B186344994203D9802149028C4662446A
:10115000190C24041B04240C8A181C19904202D375
:1011600016D1A54214D25B46009F013B4D44059326
:101170004D459B41BC465B426344C018874200D347
:1011800002E1824200D929E100D124E1059B9B467E
:101190002C1BA542AD41009B801A6D42401B83422F
:1011A00000D10FE10299FFF75BF8039A0B04424369
:1011B000210C050019438A4200D9CBE0881A029914
:1011C000FFF74EF8039A240442430904240C030059
:1011D0000C43A24200D9CAE04146A41A2A041A4389
:1011E000049F13041B0C594340467B439C46150C3B
:1011F00068430B0C844463447D43984203D98020A8
:10120000400284466544180C09041B04090C40196B
:101210005B18844227D323D0012335001A43944B13
:101220005344002B60DD510700D086E02E00D1082A
:101230005A46D20106D55A468E4B1A408023934611
:10124000DB0053448C4A934200DD80E65A46520745
:101250000A4390465A465B055402240B5B0D69E62F
:101260003500002BDBD0009D511EAC466444AC42DF
:1012700000D29EE0844200D2E1E000D1EEE00A001C
:10128000CAE7424500D908E74B46DC075808434601
:101290005B081C434346DD0706E7FFF70FF91523FC
:1012A0009C4684440200634620321C2B00DC92E6FC
:1012B0002300083883409946002398469AE6FFF7B2
:1012C000FDF802000300153220331C2A00DC5FE623
:1012D00000990838814000228B4666E600222E00E5
:1012E00000249046654B25E62E000121C91A3829B5
:1012F00000DD1BE61F297EDC6148140050445B467C
:1013000082408340CC40501E824123431A435B46B7
:10131000CB40510709D00F211140042905D0111DE0
:101320009142924152429B180A00190200D49BE05C
:101330000022012300249046FCE50F2111400429DE
:1013400000D173E7111D9142924152422E00C9080B
:1013500093446DE7009B013D9C4661448B4200D95C
:101360002CE78A4200D829E7851E614426E70099C8
:10137000013B8C466444A14200D92DE7A24200D82B
:101380002AE7831E644427E7874200D0FEE6A9458A
:1013900000D9FBE6F5E6A24200D8B9E6831E644414
:1013A000B6E68A4200D89FE6BC46831E9846614452
:1013B0009AE60A00844200D02EE74B4500D02BE786
:1013C00035002CE72A4B2F4A5344924543DB012238
:1013D000002193442CE7AC4200D8D7E602235B42BD
:1013E0009C4600994D444D459B41E3448C465B42ED
:1013F0006344C018CCE61F204042C31A5846D84068
:10140000202904D05946204B534499400A43531E87
:101410009A4107231900024300241140134209D0C6
:1014200008331340042B1DD0131D934289411A0029
:1014300049424907D2080A43904600237AE54946C3
:10144000009F4D004D458941BC4649426144A94633
:10145000023A6418AEE70122524246E79945EED3BC
:101460000A00AAE70021E5E759075B021C0BE1E748
:10147000FF030000FFFFFFFEFE070000FF07000064
:101480001E04000002FCFFFF3E040000F0B55746BA
:10149000DE464E464546E0B50D000400E80F8346A3
:1014A0000903D80F090B824619488C461F036900AF
:1014B0005E00490D3F0B760D814218D086420FD059
:1014C0000120B1420DD1BC450BD1944209D1D34585
:1014D0001CD0002905D160462043431E984100E0FE
:1014E0000120F0BCBB46B246A946A046F0BD012093
:1014F0008E42F6D1614639430F0017432743F0D19E
:101500005B465246981A431E9841EAE70020E8E7F6
:10151000FF070000F0B557464E464546DE46E0B5AB
:101520000D000E034900490D8A46DF0FE90FBC4646
:1015300083B02F4F04008046019158001903914653
:10154000360B090B400DBA451DD0B8420DD0574699
:10155000002F2AD13443002824D10A4336D0002C4E
:1015600041D163465800013815E0114338D1534644
:10157000002B01D12643F4D0019B634507D1019B89
:101580005800013807E026432AD1504521D00120D8
:10159000019B5F42384303B0F0BCBB46B246A9464C
:1015A000A046F0BD002CDCD0E6E70028EFD0019B80
:1015B0006345ECD18245EADCE1DB8E42E7D8DED13F
:1015C000C845E4D80020C845E5D2D8E7002CE2D0D1
:1015D000DDE7114304D1019B6345D8D10020DAE750
:1015E00002204042D7E7019B6345E6D0CFE7C046E3
:1015F000FF070000F0B557464E464546DE46E0B5CB
:101600000D000E034900490D8A46DF0FE90FBC4665
:1016100083B02E4F04008046019158001903914673
:10162000360B090B400DBA451ED0B8420DD05746B7
:10163000002F27D13443002833D10A4334D0002C63
:1016400040D163465800013815E0114312D153468A
:10165000002B01D12643F4D0019B63451DD001200E
:10166000019B5F42384306E0264303D15045F6D143
:1016700011431CD0022003B0F0BCBB46B246A946C1
:10168000A046F0BD0028EAD0019B6345E7D1824522
:10169000E5DC02DB8E42E2D80ED0019B5800013817
:1016A000E9E7002CCDD0D7E7002CE4D0D7E7019BA9
:1016B00000206345DFD0D2E7C845D0D80020C84518
:1016C000D9D2EAE7019B6345E4D0C8E7FF070000F1
:1016D000F0B557464E46DE464546E0B51F000B03C3
:1016E0001B0B16009A46CA0F4B000400914685B0AA
:1016F0005B0D00D1CFE1CD4A934255D05146420F08
:10170000C9000A43802109041143C2009046C84A17
:101710008A4693469B440023002502933C037B00AA
:10172000FA0F0196240B5B0D009200D188E1BF4AAD
:10173000934200D192E0BE4A944663449B440A2DF2
:1017400042DCE400730F23438024494624041C43F5
:10175000F3000193009B00205940CBB20393022D6C
:1017600000DC94E00123AB401D00A6232A00DB002F
:101770001A401D4200D029E290239B001D4200D157
:101780004DE20023802499462403A84B10004A46CA
:101790001B052343D2071343190005B0F0BCBB4619
:1017A000B246A946A046F0BD52460243904600D03C
:1017B000ACE19B460223924608250293AEE7009BCC
:1017C000A2469946019B9846029B022B00D1CAE192
:1017D000032B00D192E1012B10D100230024002221
:1017E000D4E701227B083A4013435246D207134301
:1017F000984653465B089A46039B99465B46581C9D
:101800008023DB005B44002B00DCB1E14246520741
:101810000BD00F2241460A40042A06D04246111D31
:10182000414592418846524292445246D20106D5E1
:101830005246804B1A4080239246DB00C3187E4AF2
:10184000934200DD8FE14246D108524652070A43D7
:1018500051465B054C02240B5B0D97E7734B264307
:101860009C46E344002E00D16FE1032349461D430B
:10187000009B5940CBB203930A2D00DD33E10123D5
:10188000AB401D000323029388222A4297D142468F
:1018900043461204120C160001981D0C030C0004A0
:1018A000000C4643B4461E006E4300961600070027
:1018B0005E436146B0466F430E0CB8444644B7429F
:1018C00005D9802149028846009F47440097614618
:1018D0000904090C370C36048C463100614401912F
:1018E0001100260C2404240C61438C46210069431A
:1018F00089466146090C884672434A44424475430E
:10190000914503D98021490288464544110C8846F7
:1019100061460904090C8C4612046244B91802910C
:101920005146090C8C4651460F043F0C3900414387
:1019300045448846614641438A4641466046090C13
:10194000894658437B4353444B449A4503D98021ED
:10195000490289464844190C894641460904090C44
:101960008846390061431B044344884661464C4322
:1019700071438C46414677430E0C3F19F619484493
:10198000B44203D9802149028946CC440299009F80
:10199000894631044F4489464146974292410C049E
:1019A000240C4C44FF1852426419A1189F429B41D9
:1019B000884682465B42994690459241AC42A4419A
:1019C000C244D14452426442144399459B418245EA
:1019D00092415B42524213434A46360CA419E31823
:1019E00063445B02D20D1A43019992467A020A437C
:1019F000501E8241FF0D17434A4652021743B84614
:101A0000DB0100D5EDE60D4B039A5B449146002BBC
:101A100000DCACE03A00520700D110E70F22584634
:101A20003A40042A00D0F9E609E7C046FF07000063
:101A300001FCFFFFFFFFFFFEFE070000FF030000A9
:101A4000220032436FD0002C00D1C2E02000FEF70C
:101A500035FD020003000B3A1D20821A30001900E8
:101A6000D04008398C400200224334008C40594653
:101A7000CB1A86498B469B440A2D00DDA4E64946D5
:101A8000009B01945940CBB2140000200393022D17
:101A900000DD67E6FBE65346034398463CD05346D9
:101AA000002B00D1A3E05046FEF708FD0B235B425C
:101AB0009C460200844411005046083988401D238A
:101AC000804660461B1A2000D8400300404603436E
:101AD0009A4623008B4098466C4B00259B1A9B46E8
:101AE000002302931AE60F2D00D0C9E0802352464E
:101AF0001B031A4202D01C4200D192E080245346BC
:101B000024031C4324034246240B3EE69B46032346
:101B100080460C25029301E600239A469B4601333A
:101B200004250293FAE501210D430A2D00DD4BE661
:101B3000494600984140C9B20391022D00DC96E06D
:101B400000230024012001930CE649460223009A59
:101B50002B435140CAB203920A2B00DD34E6002D1C
:101B600057D1039B994600240022494B0EE6584664
:101B70000121C91A382900DD2FE61F2956DD1F2251
:101B800054465242D31ADC40202907D0414B4246EA
:101B90009C465346604483401A4390464246072180
:101BA000531E9A410B00224313400024114209D0D6
:101BB0000F231340042B5DD0111D91429B410A005D
:101BC0005B425B07D2081A430023DFE5039B99467B
:101BD000FAE50198FEF772FC02000300153220338B
:101BE0001C2A00DC38E7019A083882403FE7FEF7FC
:101BF00065FC15239C4684440200634620321C2B5E
:101C000000DC58E7002398462300083883409A46B2
:101C100062E71D000023002402200193A2E5029048
:101C200032E61C43009B019A9946AEE51A4B524698
:101C3000C31840469A40C8400243404698400300BB
:101C4000581E834154461A43CC40530709D00F23F2
:101C50001340042B05D0131D934292415242A41805
:101C60001A00230208D50123002400228EE58946AC
:101C700000248BE50023A5E763076402240BA1E79A
:101C8000009BA2469946019B984637E70DFCFFFF53
:101C9000FF0700003E0400001E040000F0B5574698
:101CA0004E464546DE46E0B583B0009001910C03F8
:101CB0004D00CE0F610A009C5F00640F0C43009939
:101CC00000920193C80019037B0D9946019BCC4FEC
:101CD000DB0F9C464B0A00998046490F1943009B35
:101CE0008B46DA0092466D0DB94500D1BFE0012365
:101CF000614659404B468C46EB1A8E4275D0002BFC
:101D000000DCA3E24946002900D1CEE0BD4200D16B
:101D100000E20127382B19DC802759463F0439435C
:101D20008B461F2B00DDFAE12027F91A8C46594615
:101D30006746B9400F001100D9400F4361468A4001
:101D4000511E8A415946D9401743641AC71BB842ED
:101D500080414042241A230200D440E16402640A14
:101D6000002C00D154E12000FEF7A8FB0300083B43
:101D700020213800CA1AD0409C4002009F402243D4
:101D80009D4200DDA6E1581B0130091A3C008F403E
:101D9000C4407B1E9F4113008B4027431F43C2401A
:101DA0003B0014000025134300D1F7E17B0700D16D
:101DB00077E30F2338003B40042B04D0381DB84292
:101DC000BF417F42E419230200D468E38C4B013504
:101DD0009D4200D1F4E08B4B6D051C406D0D6707F3
:101DE000C00864020743240BECE0002B00DC29E36D
:101DF0004946002900D0D6E05946114300D12EE1D2
:101E0000591E012B00D1E6E1BB4200D182E101273E
:101E10000B00382914DC1F2B00DD3CE22027F91AC7
:101E20008C4659466746B9400F001100D9400F4310
:101E300061468A40511E8A415946D9401743641869
:101E40003F188742804140422418230200D4C6E054
:101E50006B4B01359D4200D1B2E00121694B7A08FC
:101E60001C4039400A43E707174364089EE7664B66
:101E700011438A46EB18002928D066452CD0002B48
:101E80005BD0002D00D12CE15B4666465F07D2088F
:101E90001743DD083B002B4300D1E2E080242403FC
:101EA0002C432403564D240B8CE05946114300D19A
:101EB000D5E0591E012B00D1B9E1BB4200D1B1E1FF
:101EC00001270B00382900DD40E72AE7614601279A
:101ED00079408C466645D2D1002B00D1C5E0002D5B
:101EE00000D055E14B462500054300D112E2591EB2
:101EF0008C46012B00D149E2414DAB4200D18FE22B
:101F00000127382911DC63461F2B00DD5BE26146A7
:101F1000202327005B1A050098409F40CD40431EB8
:101F20009841CC402F430743A344BF1897429241A6
:101F300052425A4414004D4687E7344F6B1C3B42D3
:101F400000D0B6E05946230011430F000343002D93
:101F500000D026E1002B00D1C0E1002900D1A1E092
:101F6000831A98465B464045AD41E31A6D425B1BC0
:101F700080252D042B4200D14BE15B46101A824292
:101F800092411C1B0700012663465242A41A2743B4
:101F90001E40002F00D142E12C4200D16DE2194BCE
:101FA00001251C401BE7BD4200D13BE10127382B36
:101FB00000DD45E7802759463F0439438B462AE731
:101FC000002400272D052543F60735433800290056
:101FD00003B0F0BCBB46B246A946A046F0BD7B07A5
:101FE00004D00F233B40042B00D0E7E62B00F80879
:101FF000034A67070743E508934200D14AE7A5E093
:10200000FF070000FFFF7FFF01F8FFFFFE07000052
:102010003800FEF753FA030018331F2B00DCA7E645
:102020003A00083882409D4200DD8AE05B1B581C64
:102030001F2800DCD8E117001F3BDF40202805D017
:1020400040231B1A9A40531E9A4117430025002F24
:1020500000D1E5E07B0700D0ABE62C00C6E7C00866
:10206000C6E700270024D14DACE7D14F6B1C3B42A3
:1020700071D123000343002D00D04EE15746002BC1
:1020800000D1B5E1002F0DD08318834280415C441C
:1020900040422418220200D5C8E11F009846274379
:1020A00000D1BCE043466707DB081F43E508002377
:1020B0004CE0831A98465B464045BF41E31A7F4295
:1020C000DB1B1F027CD447461F4300D1A6E01C0047
:1020D000474645E6B74CED1A14407B0700D080E731
:1020E00084E74B462500054366D05F1E012B00D1D7
:1020F000FCE0AE4DAB4200D15EE16646382F00DC1D
:10210000B4E00120171ABA4292415B4652424D4652
:102110009C1A20E66707C0080743E508BAE61F00D7
:102120005946203FF9400F00202B05D04021CB1A03
:10213000594699400A43924653465A1E93411F43BB
:1021400004E6EB1A9B4D15406F07ED082C035D0567
:10215000240B6D0D36E7954DAB4200D1D6E08218C9
:10216000210082428041594440420818C707520862
:1021700017434408520700D485E10F221D003A405E
:10218000042A00D01AE6FF08640727430509DDE7A3
:102190005B46D2085F071743DD087BE60027002473
:1021A00010E7002B00D0D6E0002900D02FE18024DA
:1021B00000267E4D240305E766465C46D00817E7F7
:1021C0005B46171ABA4292411C1B012663465242D3
:1021D000A41A1E40C4E58318834280415C444042F7
:1021E00025182A0200D4DAE0724A5B081540EA0793
:1021F0001A4369085B0700D44AE10F231340042BFC
:1022000000D1FCE0171D9742A441644202256418E6
:10221000ECE647461C001F4300D043E7002600259C
:102220000024CFE6C00867070743E50832E6871AAF
:102230005B46B8428041E41A4042241A230228D463
:102240006307FF081F43E50801237FE7002B00D148
:1022500073E64B465F1B3B00002D00D142E7382F51
:1022600000DDECE080230E001B041C431F2F25DC47
:1022700020252300ED1B0100A840AB40F940451E7E
:10228000A8410B43FC4018435B461B1B9B4639E7A8
:102290006646012562E51F005946203FF9408C46FD
:1022A000202B05D040275946FB1A99400A439246F5
:1022B00057467B1E9F4163461F43C1E53B002500F7
:1022C000203BDD40202F04D04023DB1B9C402043DB
:1022D00080464046431E9841284313E700299DD07D
:1022E000012663465C4690461E40DBE6171A5B46B5
:1022F000BA4292411C1B5242A41A2302C8D463075B
:10230000FF081F4366460123E5081FE71D00002460
:10231000002757E65C46D0086AE6002B00D137E775
:102320005346C00867070743E508002B00D1B1E515
:1023300080231B031D4208D05946C808184204D107
:10234000D20849070A43170005007B0FFF00FF086A
:102350005B071F439EE5C00863071843E508002993
:1023600053D080231B031D420AD05946CC081C427F
:1023700006D1012663462500D008490708431E40C0
:10238000470FC000C0087F07074383E583189342C7
:1023900092415C445242A5182A0200D524E76F07F7
:1023A000DB081F43ED080123D0E6C046FF0700000D
:1023B000FE070000FFFF7FFF5B46D2085F0766460F
:1023C0001743DD0866E52500203BDD406346202BF2
:1023D00005D0402361465B1A9C4020438046474617
:1023E0007B1E9F412F43A0E520210027091AD2E43C
:1023F000002F00D113E75C4617000025F6E5D7084B
:10240000490702230F432D09A0E6070042E55B467A
:1024100001265F07DD086346D20817431E4039E5F1
:102420005B46D2085F071743DD0833E51E4ADB0829
:1024300022405707520201251F43140BC2E50E002C
:1024400001205FE6002B0DD04B465B1B9C46002D08
:1024500000D148E50127382B00DD66E580231B0409
:102460001C4350E56B1C114D2B4200D073E65946BE
:10247000230011438A46034300E66707C008002390
:102480000743E50862E66407FF08274305095DE6A0
:10249000D208490711430F0002232D0956E6070011
:1024A000A4E538008FE4C046FFFF7FFFFE07000071
:1024B000F0B5C6461E03360BB0460D4E0C034D005C
:1024C0005F0000B5240B6D0D7F0DB5420BD00849A0
:1024D00000208F4204D1464616433000431E9841E7
:1024E00080BCB846F0BD04430120002CF8D1EEE7D3
:1024F000FF0700000B00020070B5164D0C0382B000
:102500004900002000920193240B490DDE0FA942DF
:1025100004DD1148814203DD104BF01802B070BD9C
:102520008020400320430E4C641A1F2C08DD0D4B05
:102530005B1AD84003005842002EEFD11800EDE797
:10254000094B009A9C46030061448B40E2401343D0
:10255000F1E7C046FE0300001D040000FFFFFF7FFF
:102560003304000013040000EDFBFFFF70B50028EA
:1025700016D0C317C5185D40C40F2800FDF79EFF95
:10258000104B1B1A5B055B0D0A2814DC02002E00A1
:10259000153296400B22121AD5402D032D0B03E065
:1025A00000240023002500261B052B43E4072343BA
:1025B0003000190070BD0B3885402D0300262D0B0F
:1025C000F2E7C0461E04000010B5041E10D0FDF74F
:1025D00075FF0E4B1B1A5B055B0D0A280FDC0B22E7
:1025E0002100121AD14015300A038440120B01E079
:1025F000002300221B0513432000190010BD2200F8
:102600000B38824012030024120BF3E71E04000073
:1026100010B5002903D1FDF751FF203002E008007A
:10262000FDF74CFF10BDC046F0B5C64600B5CCB0B6
:102630000AAF0023F8257A1913600023F422BA1890
:10264000136000237A1DFF321360C023FB18E24A97
:1026500013CA13C31168196012791A717023FB1819
:10266000180034231A00002118F000FD6F23FB1816
:1026700005221A7002F01EF802F02CF8D74B0193D5
:10268000D74B0093002300220021032013F09CFD70
:10269000D44B0293D44B0193D44B009300230022DC
:1026A0000021032013F090FDD14B00930023002262
:1026B0000021032013F088FDCE4B0193CE4B0093F5
:1026C000002300220021032013F07EFD58243B1933
:1026D000180014231A00002118F0C8FC21007B18F0
:1026E000C64A1A607B18C64A5A607B18C54ADA6027
:1026F0007B18C54A9A607B18C44A1A617B18180077
:1027000009F0BCFB14F054FA0200C14B1A6000221D
:102710000C21102014F079FD0200BE4B1A608023BA
:102720005A00BD49BD48002301931823009300239C
:1027300015F0ECFA08F08EFF03007A1913607B198C
:102740001B68002B0ED0B64AB6497B191B68019353
:10275000B54B009313000A000121012013F034FD52
:1027600001F009F809F080FC0300F8203A18136022
:102770003B181B68002B0ED0A94AAC493B181B68BC
:102780000193AB4B009313000A000121012013F0C9
:102790001BFD00F0F0FFA74B009300230022002157
:1027A000032013F011FD08F0D1FA0300F8203A18C5
:1027B00013603B181B68002B0ED0994A9E493B18AA
:1027C0001B6801939D4B009313000A000121012017
:1027D00013F0FAFC00F0CFFF994B00930023002286
:1027E0000021032013F0F0FC964BF6221900022082
:1027F00007F07AFD0300F8203A1813603B181B68B5
:10280000002B0ED0864A90493B181B6801938F4BD2
:10281000009313000A000121012013F0D5FC00F001
:10282000AAFF8B4B0093002300220021032013F00A
:10283000CBFCD4243B19180007F0A4FE0300F822B7
:10284000B9180B60BB181B68002B35D12600BB19CB
:102850001B781A00BB195B781900BB199B7818000C
:10286000BB19DB781C00BB191B791D00BB195B79F8
:10287000069305950494039002910192754B009381
:10288000002300220021032013F09EFCBB195B797A
:102890001A007149A4243B19180018F07FFA3B195B
:1028A000180007F0A7FE0300F822B9180B60BB1848
:1028B0001B68002B20D00FE0594A6849F823FB1809
:1028C0001B680193664B009313000A00012101204D
:1028D00013F07AFC00F04FFF514A6249F823FB18CD
:1028E0001B680193604B009313000A000121012033
:1028F00013F06AFC00F03FFF5C4B009300230022C2
:102900000021032013F060FC002007F009FE030003
:10291000F8203A1813603B181B68002B3CD0404944
:10292000A8239A003B181B680193514B00930B009E
:102930000121012013F048FC00F01DFFD4203A18BB
:102940007B1DFF331B68D3181B781B09DBB21900F2
:102950007B1DFF331B680A335B00C0243A19515CAE
:10296000444AD1543A187B1DFF331B68D3181B7897
:102970001A000F231A407B1DFF331B680A335B00CC
:1029800001333919895C3B4AD1547B1DFF331B68E5
:1029900001337A1DFF3213607B1DFF331B68052B4B
:1029A000CCDD344B180007F041FE0300F8203A1844
:1029B00013603B181B68002B62D0194A2E493B1844
:1029C0001B6801932D4B009313000A000121012085
:1029D00013F0FAFB00F0CFFE4CDD0108CCD3010868
:1029E000F4D301081CD4010828D4010834D4010808
:1029F00044D40108C4D3010870D40108453F00083D
:102A000005400008314000081B400008454500080B
:102A1000EC050020E005002090D40108F5370008FF
:102A2000A4D4010861020000B0D4010869020000CA
:102A3000DCD4010810D501087202000024D5010879
:102A400058D501081C0300207B0200006CD501084A
:102A5000A0D50108B4D5010810D601088B020000EA
:102A6000E8D501089302000024D6010844D60108E5
:102A700054D6010800000020AE02000074D6010800
:102A8000B54B0093002300220021032013F09CFB90
:102A9000B24B0093002300220021032013F094FB8B
:102AA000AF4B02221900002007F0DCFD0300F820E4
:102AB0003A1813603B181B68002B0ED0A94AAA498C
:102AC0003B181B680193A94B009313000A000121D6
:102AD000012013F079FB00F04EFEA54B02221900F5
:102AE000012007F0BFFD0300F8203A1813603B18DF
:102AF0001B68002B0ED09B4A9E493B181B68019314
:102B00009A4B009313000A000121012013F05CFB93
:102B100000F031FE3B1DFF3300221A706CE03B1DBC
:102B2000FF331A78944B1201D05C3B1DFF331B78A6
:102B3000914A1B01D31801331C783B1DFF331B78CE
:102B40008D4A1B01D31804331D683B1DFF331B78CE
:102B5000894A1B01D31808331E783B1DFF331B78AD
:102B6000854A1B01D31809331B783A1DFF321278AE
:102B7000814912018A180A321278019200933300B7
:102B80002A00210007F0AAFD0300F8243A19136077
:102B90003B191B68002B17D03B1DFF331B78764A6F
:102BA0001B01D3180C331B686E4974483A1912681C
:102BB00002920193724B00930B000200012101204D
:102BC00013F002FB00F0D7FD3B1DFF331B786A4A70
:102BD0001B01D3180C331B6801936A4B009300232D
:102BE00000220021032013F0EFFA3B1DFF331A7877
:102BF0003B1DFF3301321A703B1DFF331B78062B40
:102C00008DD907F0B7FD0300F8203A1813603B1880
:102C10001B68002B0ED0534A5B493B181B6801937D
:102C20005A4B009313000A000121012013F0CCFA43
:102C300000F0A1FD564B0093002300220021032049
:102C400013F0C2FA534B009300230022002103200B
:102C500013F0BAFA042007F0FFFD0300F8203A1839
:102C600013603B181B68002B0CD03E4A4A493B18A6
:102C70001B680193494B009313000A0001210120B6
:102C800013F0A2FA464B00930023002200210320F8
:102C900013F09AFA07F060FC0300F8203A1813606A
:102CA0003B181B68002B0ED02E4A3E493B181B6870
:102CB00001933D4B009313000A000121012013F002
:102CC00083FA00F058FD394B0093002300220021C5
:102CD000032013F079FA364B1868364901235B421A
:102CE00000930023012213F07EFF0300F422B918A1
:102CF0000B60BB181B680122134000D152E12E4B20
:102D00009B7C002B1BD02C4BDB7C180007F056FC67
:102D10000300F8203A1813603B181B68002B00D101
:102D200040E1104A25493B181B680193244B00934E
:102D300013000A000121012013F046FA32E1214B71
:102D40000093002300220021032013F03DFA1E4BC4
:102D5000180007F01BFE18E194D60108B0D6010850
:102D6000D8D60108A4D40108BB020000FCD6010893
:102D70001CD70108C50200004C2A0208D20200003C
:102D800040D701085CD70108DD0200006CD70108BC
:102D900098D70108C0D70108E7020000ECD7010866
:102DA00018D80108EF02000030D8010854D80108F3
:102DB000EC050020FFFFFF00F005002002030000EB
:102DC00070D8010890D8010844060020E54B1B6824
:102DD000013BF026BA191360E249BB191A681300C7
:102DE0009B009B18DB009B1ACB1804331B78180040
:102DF000DC49BB191A6813009B009B18DB009B1A67
:102E0000CB1805331B781C00D649BB191A68130070
:102E10009B009B18DB009B1ACB1806331B781D0008
:102E2000D049BA19126813009B009B18DB009B1A4B
:102E3000CB1807331B781E00CA49F023FA18126812
:102E400013009B009B18DB009B1ACB1808331B78E0
:102E50009C46C449F023FA18126813009B009B1883
:102E6000DB009B1ACB1809331B7806936246059248
:102E70000496039502940190BB4B0093002300221B
:102E80000021032013F0A0F9F023FB181A681300A7
:102E90009B009B18DB009B1AB24A9B18043300214D
:102EA000180007F053FD0300F8203A1813603B1890
:102EB0001B68002B0CD0AD4AAD493B181B68019331
:102EC000AC4B009313000A000121012013F07CF9A0
:102ED000A449F026BB191A6813009B009B18DB005D
:102EE0009B1ACB1804331B7818009E49BB191A682B
:102EF00013009B009B18DB009B1ACB1805331B7833
:102F00001C009849BB191A6813009B009B18DB0032
:102F10009B1ACB1806331B781D009249BA19126808
:102F200013009B009B18DB009B1ACB1807331B7800
:102F30001E008C49F023FA18126813009B009B189E
:102F4000DB009B1ACB1808331B789C468549F0237D
:102F5000FB181A6813009B009B18DB009B1ACB1808
:102F600009331B78069363460593049603950294F0
:102F70000190814B0093002300220021032013F0D5
:102F800023F9784B180007F001FD764B1B68002BE6
:102F900000D01BE7794B009300230022002103207F
:102FA00013F012F9F423FB181A688023DB00134096
:102FB00031D0734B1B78002B2DD0724B84246400CE
:102FC0001B19DB19180021231A00002118F04EF8F4
:102FD0006B4B1800FDF7A2F80300DBB20133DAB245
:102FE000694B1A70674B1B19DB1904221A70664B68
:102FF0001B78013B1A0062493B1D0133180018F091
:1030000078F8614B1B781A00391D604B180018F0D6
:103010008DF900F0EFFEF423FB181B68202213400B
:1030200000D11CE25A4B1A78594B5B781343DBB240
:10303000002B00D013E2574B009300230022002105
:10304000032013F0C1F8544B1B78012B00D0B5E0DE
:10305000524B0093002300220021032013F0B4F808
:1030600013F0A6FD02004E4B1A604E4A4E4B110063
:10307000180009F037F94A4B18684C4B00930023AD
:103080000122022113F0AFFD0300022B0AD0374AC0
:103090004749484B009313000A000121012013F017
:1030A00093F868E30023FC22BA18136052E0424B05
:1030B0005A68FC257B191B682E214B43D3181B78BB
:1030C000002B41D0314BDC203A1813603A4B5A6840
:1030D0007B191B682E214B43D3182A229A5C3B187C
:1030E0001B685A70344B5A687B191B682E214B435E
:1030F000D31821229B5C1A003B181B685A602E4B88
:103100005A687B191B682E214B43D31822229A5EE2
:103110003B181B685A8004003B181B6808331800D2
:10312000254B5A687B191B682E214B43D31821224B
:10313000190018F0FBF83B191B6820221A70124B7B
:103140002C221A7000F018FEFC22BB181B680133F9
:10315000BA181360184B1B68FC22BA1812689A42FE
:10316000A5D37CE144060020A8D80108A4D4010816
:1031700013030000DCD8010804D9010834D9010880
:103180000C050020FCFEFFFFD005002014040020E9
:10319000F00500204CD901081C03002064D9010867
:1031A000DC050020C93E0008300500201027000083
:1031B0004903000078D90108D4050020B54B1B78DD
:1031C000032B38D1B44B00930023002200210320AD
:1031D00012F0FAFFB14B180009F0A4F90300F8202F
:1031E0003A1813603B181B68002B14D0AC49DA2343
:1031F0009A003B181B680193AA4B00930B00012116
:10320000012012F0E1FF80231A04A74B11001800DF
:1032100001F0BCF923E1A54B00930023002200211B
:10322000032012F0D1FF8023DA039F4B1100180016
:1032300001F0ACF913E1974B1B78042B2AD19C4B7E
:103240000093002300220021032012F0BDFF012083
:1032500009F09AFA0300F822B9180B60BB181B6832
:10326000002B08D1934B0093002300220021032060
:1032700012F0AAFFF3E08A49DF239A00F823FB1833
:103280001B6801938C4B00930B000121012012F06D
:103290009BFFE4E07F4B1B78052B00D0DFE0EE23A3
:1032A000FB1804221A804023E822B9180B60FA2385
:1032B0009B00E4217818036000237B655226BB192C
:1032C00000221A80E3203B1800221A704023FB18CA
:1032D000180011231A00002117F0C8FE3C257B19A5
:1032E00000221A6038243B1900221A6034217B180E
:1032F00000221A60714B009300230022002103205A
:1033000012F062FF34217A1839197B19180007F07E
:1033100075FF031E00D0A2E02200BB181B781D0021
:10332000BB185B781900BB189B781C00BB18DB78B6
:10333000634A402038180293019400912B00102119
:1033400017F0F6FCE822BC18236899B2E422BA18F8
:1033500013689CB2EE23FB181A8840203818BB195A
:1033600001935423FB180093230007F0C3FF031EAF
:103370006BD1BB191B88002B0AD1494A5149524BCA
:10338000009313000A000121012012F01DFF66E0E6
:10339000EE243B191B885226BA1912889B1A642204
:1033A0005A433B191B8819001000FCF75DFF03000E
:1033B0001A00E3257B191A703B191B88BA19128869
:1033C00010007A191278796D04910392029001939A
:1033D0003E4B0093002300220021032012F0F4FE54
:1033E0002C217B1805221A703B191B881B0A9BB2E3
:1033F000DAB27B185A703B191B88DAB27B189A70C4
:103400007B187A191278DA707B6D1B0EDAB27B1892
:103410001A717B6D1B0CDAB27B185A717B6D1B0A1B
:10342000DAB27B189A717B6DDAB27B18DA71284BAD
:1034300008221A70264B1B781A007918254B1800A1
:1034400017F074FF00F0D6FC09E0154A2249234B1F
:10345000009313000A000121012012F0B5FEF423AD
:10346000FB181A688023DB03134000D1ACE0702303
:10347000FA186F23FB181100180009F04BFA031E0D
:1034800030D0174B0093002300220021032012F0BC
:103490009BFE80E11C03002088D901085C05002008
:1034A000A4D4010898D90108EC050020B0D901087E
:1034B000C0D90108D4D90108E8D9010800DA010807
:1034C0000CDA01089A0300001CDA010830DA01085E
:1034D000D005002014040020B703000078DA0108AA
:1034E00088DA0108AE4B70257A1913CA13C313CAC0
:1034F00013C303CA03C312781A70AA4B00930023A4
:1035000000220021032012F05FFE29007B182122F7
:103510009B5C18007B1822229B5C1C007B182322DA
:103520009B5C1D007B1824229B5C1E007B182522BF
:103530009B5C9C467B1826229B5C98467B189A6A6B
:103540007B18DB6A79180991089307924346069322
:10355000634605930496039502940190924B009361
:10356000002300220021032012F02EFE8F4B842422
:1035700064001B19DB19180021231A00002117F021
:1035800075FD8B4B1800FCF7C9FD0300DBB201335E
:10359000DAB2884B1A70854B1B19DB1904221A709A
:1035A000844B1B78013B1A0081493B1D01331800F5
:1035B00017F09FFD7F4B1B781A00391D7E4B1800BA
:1035C00017F0B4FE00F016FCF423FB181A688023F1
:1035D0001B04134011D028217B18832252001A802B
:1035E000744B02221A70734B1B781A007918724BB5
:1035F000180017F09BFE00F0FDFBF423FB181A687F
:1036000080239B02134035D06C4B6D4A9A606B4B04
:10361000DB7CFF2B26D0694BDA7C684B9B6819005A
:10362000100007F073F90300F8203A1813603B18F4
:103630001B68002B0DD0634A63493B181B6801933C
:10364000624B009313000A000121012012F0BCFD1F
:1036500010E05F4B0093002300220021032012F0B2
:10366000B3FD07E05B4B0093002300220021032001
:1036700012F0AAFDF423FB181A6880231B031340E1
:103680002FD04E4BDB7CFF2B23D04C4BDB7C180028
:1036900007F000F90300F8203A1813603B181B6884
:1036A000002B0DD0474A4C493B181B6801934B4BEC
:1036B000009313000A000121012012F085FD10E0A3
:1036C000474B0093002300220021032012F07CFDD1
:1036D00007E0404B0093002300220021032012F05A
:1036E00073FDF423FB181A6880235B0213402FD06C
:1036F000324BDB7CFF2B23D0304BDB7C180007F0F8
:10370000E7F80300F8203A1813603B181B68002BF9
:103710000DD02C498423DA003B181B680193314BF0
:1037200000930B000121012012F04EFD10E02E4B02
:103730000093002300220021032012F045FD07E042
:10374000244B0093002300220021032012F03CFDB3
:10375000F423FB181A6880231B02134001D1FFF7E2
:10376000BAFA224B0093002300220021032012F01A
:103770002BFDFFF7B0FA06F0BFFE07F005FD08F0DD
:1037800085FD08F08FF81A4B0093002300220021DA
:10379000032012F019FDBD4642B080BCB846F0BD12
:1037A0000C050020A8DA0108D0DA0108FCFEFFFFB2
:1037B0005C050020D005002014040020F005002046
:1037C00040E20100A4D40108F20300001CDB010860
:1037D00090DB0108A0DB010809040000FCDB010804
:1037E0007CDC010894DC01080CDD010820DD010807
:1037F00034DD0108B0B58EB002AF78601423FB1839
:1038000018000C231A00002117F030FC1323FB18BA
:1038100003221A700023FB600023BB6200237B623B
:103820000223FB622323FB1800221A70E64B1B685D
:103830000122524214243919180013F0B5FE030076
:10384000012BF3D12200BB181B78002B00D0EBE139
:10385000BB189A6822217B1812781A707B181B7883
:10386000082B00D9A0E19A00D84BD3181B689F46BB
:10387000D74B1B68002B07D0D54B1B68180016F0E0
:103880008FF8D34B00221A602223FB181B78002BE1
:1038900001D1D04B00E0D04B0193D04B00930023DB
:1038A00000220021032012F08FFCCD4B00221A6071
:1038B000002007F065FE0300FB62FB6A002B00D1CD
:1038C00041E2C8498F23DA00FB6A0193C64B00939B
:1038D0000B000121012012F077FC13217B18032239
:1038E0001A700023FB607A18FA239B0001930C23C3
:1038F000FB18009301230121012006F07FFF22E243
:10390000B84ABA49BA4B009313000A0001210120BA
:1039100012F05AFC13217B1803221A700023FB605B
:103920007A18FA239B0001930C23FB1800930123C0
:103930000121012006F062FF08E2A54B1B68002B65
:1039400007D180231B01180015F07AFF0200A04B5D
:103950001A60A34B00221A60012007F011FE031E1B
:103960001AD1A44B0093002300220021032012F05F
:103970002BFC13217B1802221A700023FB607A189B
:10398000FA239B0001930C23FB18009301230121D0
:10399000012006F033FFD9E1924A9749974B0093F3
:1039A00013000A000121012012F00EFC13217B18E4
:1039B00003221A700023FB607A18FA239B000193FC
:1039C0000C23FB18009301230121012006F016FFB0
:1039D000BCE1834B1B68002B00D1B6E17C4B1B681C
:1039E000002B00D1B1E12323FB181B7801225340A7
:1039F000DBB2002B09D0764B1A68794B1B68190093
:103A0000100007F005FE0300FB62714B1B681800F5
:103A100015F0C6FF6E4B00221A60FB6A002B1ED009
:103A2000704A7749FB6A0193764B009313000A00B2
:103A30000121012012F0C8FB13217B1803221A7008
:103A40000023FB607A18FA239B0001930C23FB18D8
:103A5000009301230121012006F0D0FE76E16A4B9C
:103A60000093002300220021032012F0ADFB5C4BE9
:103A700000221A6069E15A4B1B68002B4AD0544B54
:103A80001B68002B46D02323FB181B7801225340D0
:103A9000DBB2002B09D04E4B1A68514B1B68190042
:103AA000100007F0B5FD0300FB62494B1B681800CE
:103AB00015F076FF464B00221A60FB6A002B1ED0E1
:103AC000484A5249FB6A01934E4B009313000A0087
:103AD0000121012012F078FB13217B1803221A70B8
:103AE0000023FB607A18FA239B0001930C23FB1838
:103AF000009301230121012006F080FE26E1424BC4
:103B00000093002300220021032012F05DFB344BC0
:103B100000221A6013243B1901221A700023FB6053
:103B20003A19FA239B0001930C257B19009301237A
:103B30000121012006F062FEFA239B00180014F018
:103B40009FFA07F045FD0300FB62FB6A002B1CD0C7
:103B5000244A2F49FB6A01932E4B009313000A005D
:103B60000121012012F030FB3B1903221A700023BF
:103B7000FB603A19FA239B0001937B190093012300
:103B80000121012006F03AFEE0E0234B00930023E0
:103B900000220021032012F017FB204B180014F024
:103BA0006FFA01F0BCFBD1E02223FB181B780D4A11
:103BB0001B4901931B4B009313000A0001210120B4
:103BC00012F002FBC2E0C046E0050020BC2A020859
:103BD000E405002060DD010868DD010870DD0108F2
:103BE000E8050020A4D401087CDD0108830400005E
:103BF000A0DD0108C4DD01089F040000E4DD010828
:103C0000B5040000F8DD010824DE0108CF0400003F
:103C1000E404000044DE010864DE0108983A000074
:103C2000F204000084DE010814217B181B78022BAB
:103C300000D08BE0494B1B68002B00D186E07B183D
:103C40005A68474B1B68D318BB62BB6A454A944607
:103C500063447B62BA6A80231B019A425ED33F4B66
:103C60001A683F4B1B68D0187B1899683C4B1B683F
:103C700080221201D31A1A0017F058FB374B1B6829
:103C8000802212011100180007F0C2FC0300FB6241
:103C9000FB6A002B1ED0344A3449FB6A0193344B33
:103CA000009313000A000121012012F08DFA132164
:103CB0007B1803221A700023FB607A18FA239B00FA
:103CC00001930C23FB18009301230121012006F02E
:103CD00095FD07E0274B00930023002200210420DC
:103CE00012F072FABA6A80231B019A4212D91B4B56
:103CF00018681423FB189A68194B1B688021090166
:103D0000CB1AD3187A6A190017F010FB144B7A6A91
:103D10001A601BE0124B00221A6017E00F4B1A6862
:103D20000F4B1B68D01814243B1999683B195B682A
:103D30001A0017F0FBFA3B195A68094B1B68D21896
:103D4000074B1A6002E0C04600E0C0461423FB188F
:103D50009B68180015F024FE68E5C046E4050020C5
:103D6000E805002000F8FFFFA4D401080B050000BF
:103D7000A4DE0108CCDE010880B584B002AF0023C8
:103D80003B60154B0093002300220021032012F01A
:103D90001BFA124B1B781900114A124B01933B007E
:103DA00000930B000221002006F0FAFC03007B6068
:103DB0007B68002B0CD00C4A0C497B6801930C4BA0
:103DC000009313000A000121012012F0FDF9C04602
:103DD000C046BD4602B080BDE8DE0108D005002027
:103DE0001404002070170000A4D401083905000055
:103DF00000DF010880B584B002AF00233B60154BA3
:103E00000093002300220021032012F0DDF9124B61
:103E10001B781900114A124B01933B0000930B00D1
:103E20000321002006F0BCFC03007B607B68002BB4
:103E30000CD03B680B49AA22D20001930A4B009395
:103E40000B000121012012F0BFF9C046C046BD465B
:103E500002B080BDE8DE0108D00500201404002077
:103E600070170000A4D4010820DF010880B582B0DB
:103E700000AF0200BB1D1A80BB1D1B88082B01D19F
:103E800011F0E0FFC046BD4602B080BD80B582B0F3
:103E900000AF0200BB1D1A80BB1D1B88082B01D17F
:103EA00012F006F8BB1D1A8880239B019A4204D1A8
:103EB000044B0121180000F069FBC046BD4602B06A
:103EC00080BDC046EC05002080B584B002AF7860AC
:103ED0003960184B0093002300220021032012F0C8
:103EE00073F93B68180008F063FA3B681B68002B05
:103EF00008D1114B0093002300220021032012F06F
:103F000063F90DE00D4B08220021180017F0AEF800
:103F10003B681A68094B1A603B685A68074B5A603D
:103F2000074B1B680221180012F030FFC046BD4647
:103F300002B080BD40DF010854DF0108D405002035
:103F4000DC05002080B584B002AF02003960FB1DA3
:103F50001A70FB1D1B786A2B28D042DC662B02D01E
:103F6000672B08D03DE08023DA03204B11001800B6
:103F700000F00CFB36E01E4B21220021180017F048
:103F800075F81C4B40220021180017F06FF81A4BEF
:103F90000093002300220021032012F015F9174B93
:103FA00021220021180017F061F81BE0104B21229C
:103FB0000021180017F05AF80E4B4022002118007B
:103FC00017F054F83B68180008F030FD0300019327
:103FD0000B4B0093002300220021032012F0F4F881
:103FE00000E0C046C046BD4602B080BDEC050020E2
:103FF0005C0500207D05002068DF01080C0500201D
:1040000090DF010880B582B000AF02003960FB1D6F
:104010001A70C046BD4602B080BD80B582B000AF08
:1040200002003960FB1D1A70C046BD4602B080BD5B
:1040300090B58FB006AF02003960FB1D1A703B6867
:10404000BB61FB1D1B78793B132B00D968E29A00FA
:10405000E84BD3181B689F46BB6937229B5C0193D2
:10406000E54B0093002300220021032012F0ACF85E
:10407000BB6937229A5CE14BDA74BB6936229A5CE1
:10408000DE4B9A74BB6970331A00DC4B4C33110061
:104090000622180017F04AF9BB6938331A00D74BCB
:1040A000143311001A22180017F040F9BB6952337B
:1040B0001900D24B2E229B181E22180017F036F939
:1040C000CF4B0221180000F061FA2AE2CD4B009399
:1040D000002300220021032012F076F8C84B0821AB
:1040E000180000F053FA1CE2C74B00930023002293
:1040F0000021032012F068F8C04B00221A82BF4B47
:1041000000229A74BD4BFF22DA74C04B1A220021A0
:10411000180016F0ABFFBE4B06220021180016F067
:10412000A5FFBC4B1E220021180016F09FFFB44BC8
:104130000421180000F02AFAF3E1BB691B781A0089
:10414000BB695B7802930192B34B0093002300227A
:104150000021032012F038F880235A00A84B1100E8
:10416000180000F013FADCE1BB691B781A00BB6988
:104170005B7802930192A94B009300230022002157
:10418000032012F021F880239A009D4B11001800A3
:1041900000F0FCF9C5E1BB691B781A00BB695B78CC
:1041A000029301929E4B00930023002200210320E2
:1041B00012F00AF88023DA00914B1100180000F089
:1041C000E5F9AEE1BB691B781A00BB695B78029325
:1041D0000192944B0093002300220021032011F050
:1041E000F3FF80231A01864B1100180000F0CEF96E
:1041F00097E18D4B0093002300220021032011F052
:10420000E3FF80235A017E4B1100180000F0BEF935
:1042100087E1864B0093002300220021032011F048
:10422000D3FFBB6937229A5C744BDA74BB691A7886
:10423000724B1A70BB695A78704B5A70BB691A6B13
:104240006E4BDA60BB6937229B5C1A00BB691B7836
:104250001900BB695B781800BB691B6B0493039062
:1042600002910192724B009300230022002103204F
:1042700011F0AAFF614B1B78012B2ED1BB695A7834
:104280000C217B181A70BB691A6B7B185A600C00E2
:104290007B185B68180015F0D3FA02003B199A608E
:1042A0003B1998683B195A68624B190017F03EF8A1
:1042B0000023BB60604B18680823FA1839190023E3
:1042C00013F0FBF8BB68002B1FD0BB68002B1CD081
:1042D0005A4B802252051A6017E00023FB610FE061
:1042E000544AFB69D3181B780193554B0093002364
:1042F00000220021032011F067FFFB690133FB61FD
:10430000BB691B6BFA699A42EAD33C4B1B78002BC2
:1043100043D13A4B5B78012B3FD14A4B00930023AA
:1043200000220021032011F04FFF424B1B78012B8C
:1043300016D1324BDB685A1E4349444B180016F025
:10434000F5FF2E4BDB68013B404A0021D154404B26
:104350000093002300220021032011F035FF1CE010
:10436000344B1B78022B18D1244BDB685A1E36497C
:10437000384B180016F0DAFF204BDB68013B334A5C
:104380002121D3185B1800221A70334B00930023AD
:1043900000220021032011F017FF194B20211800E3
:1043A00000F0F4F8BDE02D4B009300230022002123
:1043B000032011F009FF124B1021180000F0E6F85D
:1043C000AFE0BB6937229A5C0C4BDA740B4BDB7C99
:1043D0000193234B0093002300220021032011F0BE
:1043E000F3FE80239A02064B1100180000F0CEF86D
:1043F00097E0C046E02A02089CDF0108F005002093
:10440000EC050020C4DF0108E8DF010804060020F5
:104410003C0600201E06002000E001083CE00108E8
:1044200078E00108B4E00108F0E0010808E10108C3
:1044300018E101081C030020E005002004ED00E065
:1044400058E1010864E101081D0300205C0500201B
:104450007CE101087D05002088E1010890E1010868
:10446000A0E10108BB6937229A5C304BDA74BB6962
:10447000DA682E4B9A602D4B9B682C4AD27C0292B4
:1044800001932B4B0093002300220021032011F005
:104490009BFE80231A03274B1100180000F076F8CA
:1044A0003FE0BB6937229A5C204BDA741F4BDB7C00
:1044B0000193214B0093002300220021032011F0DF
:1044C00083FE80235A021B4B1100180000F05EF897
:1044D00027E01A4B0093002300220021032011F053
:1044E00073FE80231A02134B1100180000F04EF8DF
:1044F00017E0BB69DA680D4B9A600C4B9B6801931F
:104500000F4B0093002300220021032011F05CFEDA
:104510008023DA02074B1100180000F037F800E0A2
:10452000C046C046BD4609B090BDC046F00500205B
:10453000CCE10108EC05002000E201082CE20108B2
:1045400048E2010880B586B004AF02003960FB1D67
:104550001A70FB1D1B78180007F0ECFC0100084ADC
:1045600008483B6802930191074B00931300020037
:104570000121012011F028FEC046BD4602B080BDD9
:10458000A4D401088F06000064E2010880B586B05B
:1045900000AF786039600023FB60EFF305837B6137
:1045A0007B69002B02D100233B6101E001233B61C9
:1045B0003B69002B12D07B681B680C22BA18396843
:1045C000180012F0BDFCFB68002B0ED0FB68002B1E
:1045D0000BD0084B802252051A6006E07B681B68EE
:1045E0003A681100180012F0D1FBC046BD4606B073
:1045F00080BDC04604ED00E080B582B000AF7860B9
:10460000FA239B00391D0448012204F023F97B683A
:104610001800BD4602B080BDC407002080B584B03C
:1046200000AF78600023FB60094B1B680C22BA18AE
:104630001100180014F0BCFBFB68002B03D0054BE5
:10464000802252051A60C046BD4604B080BDC046F7
:104650009806002004ED00E0B0B584B000AF7860AB
:104660000F243B1900221A7014F0D2F902000F4BEC
:104670001A607B681800FBF751FD03009AB2250011
:104680003C1979680A4B180004F088F9030023707C
:104690007B191B78002B05D101235B4219000120F7
:1046A00014F040FBC046BD4604B0B0BD98060020E3
:1046B000C407002080B500AF044B180011F02EFD98
:1046C0000200034B1A60C046BD4680BD5946000833
:1046D0009C06002080B500AFC046BD4680BD0000EE
:1046E00080B500AF00F00AFD00F020F800F02EF9D0
:1046F00000F006F900F078F800F0B4F815F058FA78
:1047000012F02CF9064A074B0021180012F06EF93E
:104710000200054B1A6012F043F9C046FDE7C0469F
:10472000302B0208994A00085808002090B595B02F
:1047300000AF14243B1918003C231A00002116F086
:1047400095FC3B1D180010231A00002116F08EFC6A
:1047500080239B00180001F01FFB3B1902221A6006
:104760003B1980225200DA6021007B1800221A6176
:104770007B1840225A617B1802221A627B1802229F
:104780005A627B1800229A627B180822DA627B1830
:10479000802292021A637B18802292045A637B184B
:1047A000802292059A637B18180001F041FB031EDA
:1047B00001D000F08BF93B1D07221A603B1D02223D
:1047C0005A603B1D00229A603B1D0022DA603B1DAF
:1047D0000221180001F08CFE031E01D000F076F9D2
:1047E000C046BD4615B090BD80B500AF1B4B1C4AFE
:1047F0001A601A4B822252005A60184B00229A60AB
:10480000164BE022D200DA60144B00221A61134BDF
:1048100000225A61114B802292009A610F4B0022B4
:10482000DA610E4B00221A620C4B00225A620B4BCB
:1048300000229A62094B0722DA62084B00221A63AF
:10484000064B08225A63054B180002F061FA031E5A
:1048500001D000F03BF9C046BD4680BDA006002057
:104860000030014080B500AF234B244A1A60224B30
:10487000E12252025A60204B00229A601E4B002215
:10488000DA601D4B00221A611B4B0C225A611A4B35
:1048900000229A61184B0022DA61174B00221A623B
:1048A000154B00225A62144B00229A62124B1800D8
:1048B00003F07AFF031E01D000F008F90E4B00212F
:1048C000180005F015FC031E01D000F0FFF80A4B9C
:1048D0000021180005F04CFC031E01D000F0F6F892
:1048E000054B180005F0CAFB031E01D000F0EEF8DE
:1048F000C046BD4680BDC046C407002000440040FD
:1049000080B582B000AF104B9A6B0F4B01210A4368
:104910009A630D4B9B6B012213407B607B680022E6
:104920000321092000F0D6FC092000F0E8FC002259
:1049300003210A2000F0CEFC0A2000F0E0FCC04673
:10494000BD4602B080BDC0460010024090B58BB09D
:1049500000AF14243B19180014231A00002116F08C
:1049600085FB494B5A6B484B04210A435A63464B1B
:104970005B6B042213403B613B69434B5A6B424BD8
:1049800020210A435A63404B5B6B20221340FB609B
:10499000FB683D4B5A6B3C4B01210A435A633A4B2F
:1049A0005B6B01221340BB60BB68374B5A6B364BC5
:1049B00002210A435A63344B5B6B022213407B6033
:1049C0007B683249324B0022180001F09EF93B19F6
:1049D000802292011A603B19842292035A603B198B
:1049E00000229A603B192B4A1900100001F004F8CC
:1049F0003B1911221A603B1901225A603B1900220F
:104A00009A603B190222DA603B19214A1900100012
:104A100000F0F2FF21007B188022D2011A600C0006
:104A20003B1901225A603B1900229A603B1900226F
:104A3000DA603B19164A1900100000F0DDFF210072
:104A40007B1808221A607B18C42292035A607B18D4
:104A500000229A607B180E4A1900100000F0CCFF6B
:104A600000220321062000F035FC062000F047FC60
:104A700000220321072000F02DFC072000F03FFC5E
:104A8000C046BD460BB090BD001002401140000072
:104A9000000400500008005080B582B000AF78607C
:104AA000012012F039F8FBE780B582B000AF7860E2
:104AB0007B681B68044A934201D100F03FFBC0466B
:104AC000BD4602B080BDC046002C014080B500AF9D
:104AD00072B6C046C046FDE780B582B000AF154B48
:104AE0001A6C144B01210A431A64124B1B6C0122ED
:104AF00013407B607B680F4BDA6B0E4B80214905BE
:104B00000A43DA630B4BDA6B80235B0513403B608F
:104B10003B6802235B4200220321180000F0DAFB0D
:104B2000C023DB00180000F025FBC046BD4602B0E4
:104B300080BDC0460010024090B58BB000AF7860D9
:104B400014243B19180014231A00002116F08EFAC1
:104B50007B681B684A4A934200D08CE0494B1A6C30
:104B6000484B802149010A431A64464B1A6C802342
:104B70005B0113403B613B69424B5A6B414B012146
:104B80000A435A633F4B5B6B01221340FB60FB6897
:104B900021007B18E0221A607B1802225A607B18E1
:104BA00000229A607B180322DA607B1800221A61C7
:104BB0007A18A023DB051100180000F01DFF324B0E
:104BC000324A1A60304B11225A602F4B10229A60E1
:104BD0002D4B0022DA602C4B80221A612A4B0022D6
:104BE0005A61294B00229A61274B0022DA61264B39
:104BF000802292011A62244B180000F095FB031EDC
:104C000001D0FFF763FF7B681F4A5A651E4B7A6825
:104C10009A621F4B1F4A1A601D4B10225A601C4B90
:104C200000229A601A4B0022DA60194B80221A6126
:104C3000174B00225A61164B00229A61144B002236
:104C4000DA61134B802292011A62114B180000F0B6
:104C50006BFB031E01D0FFF739FF7B680C4A9A6596
:104C60000B4B7A689A6200220321192000F032FB74
:104C7000192000F044FBC046BD460BB090BDC046B5
:104C800000300140001002400407002008000240EC
:104C9000640700201C00024090B59DB000AF786012
:104CA0005C23FB18180014231A00002116F0DEF90B
:104CB00010243B1918004C231A00002116F0D6F9D5
:104CC0007B681B68264A934246D13B1902221A6030
:104CD0003B1900229A603B19180001F0DDFD031E0C
:104CE00001D0FFF7F3FE1F4BDA6B1E4B80218902C8
:104CF0000A43DA631B4BDA6B80239B021340FB6091
:104D0000FB68184B5A6B174B01210A435A63154B2A
:104D10005B6B01221340BB60BB685C217B180C22DB
:104D20001A607B1802225A607B1800229A607B1856
:104D30000022DA607B1801221A617A18A023DB05B1
:104D40001100180000F058FE002203211C2000F082
:104D5000C1FA1C2000F0D3FAC046BD461DB090BD7C
:104D60000044004000100240B0B58CB000AF786045
:104D70002B23FB1800221A70384B1A6C374B8021FA
:104D800009010A431A64354B1A6C80231B01134036
:104D9000BB60BB680C23FA1810243B1911001800E3
:104DA00001F050FD3B19DB687B627B6A002B04D16C
:104DB00001F032FD0300FB6204E001F02DFD030071
:104DC0005B00FB62FB6A26491800FBF7C3F903008E
:104DD000013B3B62234B244A1A60224B234ADA6090
:104DE000204B3A6A5A601F4B00221A611D4B002269
:104DF0009A601C4B00229A612B257C19194B1800D4
:104E000003F038FA030023707B191B78002B1ED1A6
:104E10007C19144B180003F08DFA030023707B19E2
:104E20001B78002B13D10D2000F069FA7B68032B4F
:104E300009D87B68002219000D2000F04BFA0C4BBA
:104E40007A681A6003E02B23FB1801221A702B23C7
:104E5000FB181B781800BD460CB0B0BD0010024016
:104E600040420F005C080020002C0140E7030000D6
:104E70002800002080B500AFC046FDE780B500AF38
:104E8000C046FDE780B500AF082000F05BFFC046DC
:104E9000BD4680BD80B500AF80239B01180000F0A7
:104EA00051FFC046BD4680BD80B500AF034B180022
:104EB00000F034FCC046BD4680BDC046040700205B
:104EC00080B500AF034B180000F028FCC046BD467B
:104ED00080BDC0466407002080B500AF034B1800BA
:104EE00003F08AFAC046BD4680BDC0465C0800207B
:104EF00080B500AF034B180002F0DAFDC046BD4696
:104F000080BDC046A006002080B500AF034B18004E
:104F100003F0ECFDC046BD4680BDC046C40700207E
:104F200080B500AF01231800BD4680BD80B582B0BA
:104F300000AF7860396016F0C1F9030016221A60DC
:104F400001235B421800BD4602B080BD80B582B02F
:104F500000AF786001235A427B6811001800FFF708
:104F6000E5FFC046FDE780B586B000AFF860B960E8
:104F70007A6000237B610AE000E000BF0100BB68AB
:104F80005A1CBA60CAB21A707B6901337B617A69B4
:104F90007B689A42F0DB7B681800BD4606B080BD96
:104FA00080B586B000AFF860B9607A6000237B619D
:104FB00009E0BB685A1CBA601B781800FFF71CFB9D
:104FC0007B6901337B617A697B689A42F1DB7B689C
:104FD0001800BD4606B080BD80B582B000AF7860D5
:104FE00001235B421800BD4602B080BD80B582B08F
:104FF00000AF786039603B68802292015A600023DC
:105000001800BD4602B080BD80B582B000AF7860A8
:1050100001231800BD4602B080BD80B584B000AF4A
:10502000F860B9607A6000231800BD4604B080BD06
:1050300080B586B000AF7860144A154BD31A7B61F7
:105040007B693B61134B1B68002B02D1114B124A49
:105050001A60104B1A687B68D3183A699A4207D2D3
:1050600016F02CF903000C221A6001235B4209E0C0
:10507000084B1B68FB60074B1A687B68D218054B0E
:105080001A60FB681800BD4606B080BD00400220D3
:1050900000040000A8080020C0B8002080B500AFC0
:1050A000C046BD4680BD00000D488546FFF7F6FFAF
:1050B0000C480D490D4A002302E0D458C450043373
:1050C000C4188C42F9D30A4A0A4C002301E0136049
:1050D0000432A242FBD316F0F7F8FFF701FBFEE71C
:1050E000004002200000002000030020E8360208F3
:1050F00000030020BCB80020FEE7000080B582B0AD
:1051000000AFFB1D00221A700B4B1A680A4B80215E
:1051100049000A431A600320FFF726FE031E03D04E
:10512000FB1D01221A7001E0FFF7D6FCFB1D1B7866
:105130001800BD4602B080BD0020024080B500AF1F
:10514000054B1B781A00054B1B68D218034B1A60DD
:10515000C046BD4680BDC0462C000020AC080020E3
:1051600080B500AF024B1B681800BD4680BDC0462D
:10517000AC08002080B582B000AF7860064B1B6899
:10518000064A13401900044B7A680A431A60C04665
:10519000BD4602B080BDC04600000140FFF9FFFFE0
:1051A00080B582B000AF0200FB1D1A70FB1D1B789A
:1051B0007F2B09D8FB1D1B781A001F231A40044BB4
:1051C000012191400A001A60C046BD4602B080BD70
:1051D00000E100E090B583B000AF02003960FB1D34
:1051E0001A70FB1D1B787F2B28D82F4AFB1D1B78BC
:1051F0005BB29B08C0339B009B58FA1D12781100CC
:1052000003220A40D200FF2191400A00D2431A40F3
:1052100011003B689B01FF221A40FB1D1B78180000
:1052200003230340DB009A401F48FB1D1B785BB241
:105230009B080A43C0339B001A5031E01B4AFB1DF8
:105240001B7819000F230B40083B9B0806339B007B
:10525000D31804331B68FA1D1278110003220A4088
:10526000D200FF2191400A00D2431A4011003B684E
:105270009B01FF221A40FB1D1B78180003230340EB
:10528000DB009A400948FB1D1B781C000F232340BC
:10529000083B9B080A4306339B00C31804331A607B
:1052A000C046BD4603B090BD00E100E000ED00E067
:1052B00080B500AFBFF34F8FC046044B044ADA609D
:1052C000BFF34F8FC046C046FDE7C04600ED00E08B
:1052D0000400FA0580B584B000AFB9607A600F2190
:1052E0007B18021C1A70BA687B181B785BB211001D
:1052F0001800FFF76FFFC046BD4604B080BD80B503
:1053000082B000AF0200FB1D1A70FB1D1B785BB260
:105310001800FFF745FFC046BD4602B080BD80B50E
:1053200000AFFFF7C5FF000080B582B000AF786026
:105330007B68002B01D1012391E07B681B681A0078
:10534000494B9A4210D87B681B68484A944663448C
:1053500014211800FAF7FEFE03009A007B685A64D5
:105360007B68434A1A640FE07B681B68414A944695
:10537000634414211800FAF7EDFE03009A007B68DD
:105380005A647B683C4A1A647B682522022199543E
:105390007B681B681A687B681B6838490A401A607A
:1053A0007B681B6819687B689A687B68DB681A43AE
:1053B0007B681B691A437B685B691A437B689B693E
:1053C0001A437B68DB691A437B681B6A1A437B6854
:1053D0001B680A431A607B68180000F09FFA7B681C
:1053E0009A688023DB019A4202D17B6800225A60CE
:1053F0007B685A687B689B6C7F210A401A607B68D7
:10540000DB6C7A68126D5A607B685B68002B11D088
:105410007B685B68042B0DD87B68180000F0C8FA25
:105420007B685B6D00221A607B689B6D7A68D26D29
:105430005A6008E07B6800225A657B6800229A6502
:105440007B680022DA657B680022DA637B682522AC
:10545000012199547B6824220021995400231800CB
:10546000BD4602B080BDC04607040240F8FFFDBF44
:1054700000000240F8FBFDBF000402400F80FFFF68
:1054800080B586B000AFF860B9607A603B601723E2
:10549000FB1800221A70FB6824229B5C012B01D1AF
:1054A00002236FE0FB68242201219954FB68252226
:1054B0009B5CDBB2012B57D1FB682522022199545A
:1054C000FB680022DA63FB681B681A68FB681B68CC
:1054D00001218A431A603B687A68B968F86800F06D
:1054E000E1F9FB681B6B002B08D0FB681B681A688E
:1054F000FB681B680E210A431A600FE0FB681B68FB
:105500001A68FB681B6804218A431A60FB681B68E1
:105510001A68FB681B680A210A431A60FB689B6CC7
:105520001A6880235B02134008D0FB689B6C1A68E2
:10553000FB689B6C802149000A431A60FB685B6D25
:10554000002B08D0FB685B6D1A68FB685B6D8021DF
:1055500049000A431A60FB681B681A68FB681B68ED
:1055600001210A431A600AE0FB688022DA63FB68C3
:105570002422002199541723FB1801221A701723A3
:10558000FB181B781800BD4606B080BD80B582B000
:1055900000AF78607B68002B01D101234FE07B686E
:1055A00025229B5CDBB2022B08D07B680422DA63E5
:1055B0007B68242200219954012340E07B681B680A
:1055C0001A687B681B680E218A431A607B689B6C93
:1055D0001A687B689B6C1C490A401A607B681B68D0
:1055E0001A687B681B6801218A431A607B685B6CC0
:1055F0001C221A407B681B6C012191400A005A60F2
:105600007B68DB6C7A68126D5A607B685B6D002B7F
:105610000CD07B685B6D1A687B685B6D0A490A4039
:105620001A607B689B6D7A68D26D5A607B68252210
:10563000012199547B6824220021995400231800E9
:10564000BD4602B080BDC046FFFEFFFF80B584B0FE
:1056500000AF78600F217B1800221A707B6825222A
:105660009B5CDBB2022B06D07B680422DA637B18DA
:1056700001221A7048E07B681B681A687B681B6807
:105680000E218A431A607B681B681A687B681B6856
:1056900001218A431A607B689B6C1A687B689B6C4B
:1056A0001D490A401A607B685B6C1C221A407B68AB
:1056B0001B6C012191400A005A607B68DB6C7A68A0
:1056C000126D5A607B685B6D002B0CD07B685B6D44
:1056D0001A687B685B6D10490A401A607B689B6D95
:1056E0007A68D26D5A607B682522012199547B68C3
:1056F0002422002199547B689B6B002B04D07B688B
:105700009B6B7A68100098470F23FB181B781800D2
:10571000BD4604B080BDC046FFFEFFFF80B584B02B
:1057200000AF78607B681B6C1B68FB607B681B6844
:105730001B68BB607B685B6C1C22134004229A4090
:105740001300FA68134026D0BB680422134022D00D
:105750007B681B681B682022134007D17B681B688D
:105760001A687B681B6804218A431A607B685B6C3B
:105770001C221A407B681B6C042191400A005A606D
:105780007B681B6B002B00D180E07B681B6B7A6809
:10579000100098477AE07B685B6C1C221340022261
:1057A0009A401300FA6813403CD0BB6802221340B1
:1057B00038D07B681B681B68202213400BD17B68A4
:1057C0001B681A687B681B680A218A431A607B6819
:1057D0002522012199547B681B681A002E4B9A429E
:1057E00009D97B685B6C1C221A402C4B022191402A
:1057F0000A005A6008E07B685B6C1C221A40284B48
:10580000022191400A005A607B68242200219954A9
:105810007B68DB6A002B39D07B68DB6A7A68100012
:10582000984733E07B685B6C1C22134008229A4047
:105830001300FA6813402AD0BB680822134026D010
:105840007B681B681A687B681B680E218A431A6094
:105850007B685B6C1C221A407B681B6C01219140A9
:105860000A005A607B680122DA637B6825220121E5
:1058700099547B682422002199547B685B6B002B30
:1058800005D07B685B6B7A6810009847C046C046BD
:10589000BD4604B080BDC046800002400004024006
:1058A0000000024080B584B000AFF860B9607A6053
:1058B0003B60FB68DB6CFA68126D5A60FB685B6DDD
:1058C000002B04D0FB689B6DFA68D26D5A60FB68B0
:1058D0005B6C1C221A40FB681B6C012191400A0082
:1058E0005A60FB681B683A685A60FB689B68102B1B
:1058F00008D1FB681B687A689A60FB681B68BA6805
:10590000DA6007E0FB681B68BA689A60FB681B688E
:105910007A68DA60C046BD4604B080BD80B584B008
:1059200000AF78607B681B681A001D4B9A4214D840
:105930007B685B6C9B089B001A4A9A187B689A6488
:105940007B681B681A00FF231340083B14211800D2
:10595000FAF700FC0300FB6014E07B685B6C9B08BB
:105960009B00114A9A187B689A647B681B681A002E
:10597000FF231340083B14211800FAF7EBFB030048
:105980000733FB607B68094ADA64FB681F22134017
:1059900001229A407B681A65C046BD4604B080BDAE
:1059A00007040240000802401C0802408008024030
:1059B00080B584B000AF78607B685B687F2213405D
:1059C000FB60FB680A4A944663449B001A007B68AC
:1059D0005A657B68074A9A65FB68013B03221340BE
:1059E00001229A407B68DA65C046BD4604B080BD9E
:1059F0003F8200104009024080B586B000AF786059
:105A0000396000237B614DE13B681B6801217A69A5
:105A100091400A001340FB60FB68002B00D13EE17F
:105A20003B685B6803221340012B05D03B685B6831
:105A300003221340022B30D17B689B683B617B695A
:105A40005B0003229A401300DA433B6913403B6139
:105A50003B68DA687B695B009A4013003A6913433C
:105A60003B617B683A699A607B685B683B610122B5
:105A70007B699A401300DA433B6913403B613B6802
:105A80005B681B0901221A407B699A4013003A693E
:105A900013433B617B683A695A603B685B68032249
:105AA0001340032B17D07B68DB683B617B695B008D
:105AB00003229A401300DA433B6913403B613B6881
:105AC0009A687B695B009A4013003A6913433B6113
:105AD0007B683A69DA603B685B6803221340022BFB
